{
    "contractName": "todo",
    "abi": [
        {
            "inputs": [
                {
                    "internalType": "address",
                    "name": "",
                    "type": "address"
                },
                {
                    "internalType": "string",
                    "name": "",
                    "type": "string"
                }
            ],
            "name": "content",
            "outputs": [
                {
                    "internalType": "bool",
                    "name": "",
                    "type": "bool"
                }
            ],
            "stateMutability": "view",
            "type": "function",
            "constant": true
        },
        {
            "inputs": [
                {
                    "internalType": "address",
                    "name": "",
                    "type": "address"
                },
                {
                    "internalType": "uint256",
                    "name": "",
                    "type": "uint256"
                }
            ],
            "name": "list",
            "outputs": [
                {
                    "internalType": "string",
                    "name": "",
                    "type": "string"
                }
            ],
            "stateMutability": "view",
            "type": "function",
            "constant": true
        },
        {
            "inputs": [
                {
                    "internalType": "string",
                    "name": "name",
                    "type": "string"
                }
            ],
            "name": "add",
            "outputs": [],
            "stateMutability": "nonpayable",
            "type": "function"
        },
        {
            "inputs": [
                {
                    "internalType": "string",
                    "name": "name",
                    "type": "string"
                }
            ],
            "name": "markascompleted",
            "outputs": [],
            "stateMutability": "payable",
            "type": "function",
            "payable": true
        },
        {
            "inputs": [],
            "name": "getTasks",
            "outputs": [
                {
                    "internalType": "string[]",
                    "name": "",
                    "type": "string[]"
                }
            ],
            "stateMutability": "view",
            "type": "function",
            "constant": true
        }
    ],
    "bytecode": "0x608060405234801561001057600080fd5b50611134806100206000396000f3fe60806040526004361061004a5760003560e01c806304a87e381461004f57806312875d8c1461007a57806377c6212b146100965780638aba1104146100d3578063b0c8f9dc14610110575b600080fd5b34801561005b57600080fd5b50610064610139565b6040516100719190610e8d565b60405180910390f35b610094600480360381019061008f9190610b6f565b61025e565b005b3480156100a257600080fd5b506100bd60048036038101906100b89190610b33565b6105cc565b6040516100ca9190610eca565b60405180910390f35b3480156100df57600080fd5b506100fa60048036038101906100f59190610adf565b610695565b6040516101079190610eaf565b60405180910390f35b34801561011c57600080fd5b5061013760048036038101906101329190610b6f565b6106da565b005b60606000803373ffffffffffffffffffffffffffffffffffffffff1673ffffffffffffffffffffffffffffffffffffffff168152602001908152602001600020805480602002602001604051908101604052809291908181526020016000905b82821015610255578382906000526020600020018054600181600116156101000203166002900480601f0160208091040260200160405190810160405280929190818152602001828054600181600116156101000203166002900480156102415780601f1061021657610100808354040283529160200191610241565b820191906000526020600020905b81548152906001019060200180831161022457829003601f168201915b505050505081526020019060010190610199565b50505050905090565b80600160003373ffffffffffffffffffffffffffffffffffffffff1673ffffffffffffffffffffffffffffffffffffffff168152602001908152602001600020816040516102ac9190610e5f565b908152602001604051809103902060009054906101000a900460ff16610307576040517f08c379a00000000000000000000000000000000000000000000000000000000081526004016102fe90610f2c565b60405180910390fd5b600160003373ffffffffffffffffffffffffffffffffffffffff1673ffffffffffffffffffffffffffffffffffffffff168152602001908152602001600020826040516103549190610e5f565b908152602001604051809103902060006101000a81549060ff02191690556000826040516020016103859190610e5f565b604051602081830303815290604052805190602001209050600080600080600090505b6000803373ffffffffffffffffffffffffffffffffffffffff1673ffffffffffffffffffffffffffffffffffffffff1681526020019081526020016000208054905081101561055e5783610476576000803373ffffffffffffffffffffffffffffffffffffffff1673ffffffffffffffffffffffffffffffffffffffff168152602001908152602001600020818154811061043f57fe5b906000526020600020016040516020016104599190610e76565b604051602081830303815290604052805190602001209150610540565b6000803373ffffffffffffffffffffffffffffffffffffffff1673ffffffffffffffffffffffffffffffffffffffff16815260200190815260200160002081815481106104bf57fe5b906000526020600020016000803373ffffffffffffffffffffffffffffffffffffffff1673ffffffffffffffffffffffffffffffffffffffff168152602001908152602001600020600183038154811061051557fe5b90600052602060002001908054600181600116156101000203166002900461053e9291906108c5565b505b818514156105515760019350600192505b80806001019150506103a8565b506000803373ffffffffffffffffffffffffffffffffffffffff1673ffffffffffffffffffffffffffffffffffffffff1681526020019081526020016000208054806105a657fe5b6001900381819060005260206000200160006105c2919061095a565b9055505050505050565b600060205281600052604060002081815481106105e857600080fd5b90600052602060002001600091509150508054600181600116156101000203166002900480601f01602080910402602001604051908101604052809291908181526020018280546001816001161561010002031660029004801561068d5780601f106106625761010080835404028352916020019161068d565b820191906000526020600020905b81548152906001019060200180831161067057829003601f168201915b505050505081565b6001602052816000526040600020818051602081018201805184825260208301602085012081835280955050505050506000915091509054906101000a900460ff1681565b80600160003373ffffffffffffffffffffffffffffffffffffffff1673ffffffffffffffffffffffffffffffffffffffff168152602001908152602001600020816040516107289190610e5f565b908152602001604051809103902060009054906101000a900460ff1615610784576040517f08c379a000000000000000000000000000000000000000000000000000000000815260040161077b90610eec565b60405180910390fd5b81516000811180156107965750601081105b6107d5576040517f08c379a00000000000000000000000000000000000000000000000000000000081526004016107cc90610f0c565b60405180910390fd5b6000803373ffffffffffffffffffffffffffffffffffffffff1673ffffffffffffffffffffffffffffffffffffffff1681526020019081526020016000208390806001815401808255809150506001900390600052602060002001600090919091909150908051906020019061084c9291906109a2565b5060018060003373ffffffffffffffffffffffffffffffffffffffff1673ffffffffffffffffffffffffffffffffffffffff1681526020019081526020016000208460405161089b9190610e5f565b908152602001604051809103902060006101000a81548160ff021916908315150217905550505050565b828054600181600116156101000203166002900490600052602060002090601f0160209004810192826108fb5760008555610949565b82601f1061090c5780548555610949565b8280016001018555821561094957600052602060002091601f016020900482015b8281111561094857825482559160010191906001019061092d565b5b5090506109569190610a30565b5090565b50805460018160011615610100020316600290046000825580601f10610980575061099f565b601f01602090049060005260206000209081019061099e9190610a30565b5b50565b828054600181600116156101000203166002900490600052602060002090601f0160209004810192826109d85760008555610a1f565b82601f106109f157805160ff1916838001178555610a1f565b82800160010185558215610a1f579182015b82811115610a1e578251825591602001919060010190610a03565b5b509050610a2c9190610a30565b5090565b5b80821115610a49576000816000905550600101610a31565b5090565b6000610a60610a5b84610f7d565b610f4c565b905082815260208101848484011115610a7857600080fd5b610a8384828561107b565b509392505050565b600081359050610a9a816110d0565b92915050565b600082601f830112610ab157600080fd5b8135610ac1848260208601610a4d565b91505092915050565b600081359050610ad9816110e7565b92915050565b60008060408385031215610af257600080fd5b6000610b0085828601610a8b565b925050602083013567ffffffffffffffff811115610b1d57600080fd5b610b2985828601610aa0565b9150509250929050565b60008060408385031215610b4657600080fd5b6000610b5485828601610a8b565b9250506020610b6585828601610aca565b9150509250929050565b600060208284031215610b8157600080fd5b600082013567ffffffffffffffff811115610b9b57600080fd5b610ba784828501610aa0565b91505092915050565b6000610bbc8383610c48565b905092915050565b6000610bcf82610fd2565b610bd98185610ff5565b935083602082028501610beb85610fad565b8060005b85811015610c275784840389528151610c088582610bb0565b9450610c1383610fe8565b925060208a01995050600181019050610bef565b50829750879550505050505092915050565b610c4281611045565b82525050565b6000610c5382610fdd565b610c5d8185611006565b9350610c6d81856020860161108a565b610c76816110bf565b840191505092915050565b6000610c8c82610fdd565b610c968185611017565b9350610ca681856020860161108a565b610caf816110bf565b840191505092915050565b6000610cc582610fdd565b610ccf8185611028565b9350610cdf81856020860161108a565b80840191505092915050565b600081546001811660008114610d085760018114610d2d57610d71565b607f6002830416610d198187611028565b955060ff1983168652808601935050610d71565b60028204610d3b8187611028565b9550610d4685610fbd565b60005b82811015610d6857815481890152600182019150602081019050610d49565b82880195505050505b505092915050565b6000610d86600e83611017565b91507f416c7265616479204578697374730000000000000000000000000000000000006000830152602082019050919050565b6000610dc6602883611017565b91507f4d696e206f6e6520636861726163746572206d6178206f66203135206172652060008301527f616c6c6f776564730000000000000000000000000000000000000000000000006020830152604082019050919050565b6000610e2c600e83611017565b91507f446f65736e2774206578697374730000000000000000000000000000000000006000830152602082019050919050565b6000610e6b8284610cba565b915081905092915050565b6000610e828284610ceb565b915081905092915050565b60006020820190508181036000830152610ea78184610bc4565b905092915050565b6000602082019050610ec46000830184610c39565b92915050565b60006020820190508181036000830152610ee48184610c81565b905092915050565b60006020820190508181036000830152610f0581610d79565b9050919050565b60006020820190508181036000830152610f2581610db9565b9050919050565b60006020820190508181036000830152610f4581610e1f565b9050919050565b6000604051905081810181811067ffffffffffffffff82111715610f7357610f726110bd565b5b8060405250919050565b600067ffffffffffffffff821115610f9857610f976110bd565b5b601f19601f8301169050602081019050919050565b6000819050602082019050919050565b60008190508160005260206000209050919050565b600081519050919050565b600081519050919050565b6000602082019050919050565b600082825260208201905092915050565b600082825260208201905092915050565b600082825260208201905092915050565b600081905092915050565b600061103e82611051565b9050919050565b60008115159050919050565b600073ffffffffffffffffffffffffffffffffffffffff82169050919050565b6000819050919050565b82818337600083830152505050565b60005b838110156110a857808201518184015260208101905061108d565b838111156110b7576000848401525b50505050565bfe5b6000601f19601f8301169050919050565b6110d981611033565b81146110e457600080fd5b50565b6110f081611071565b81146110fb57600080fd5b5056fea264697066735822122053f68e70b42519865cf394d5432b81f3ef0a2fb561084d6002a549736b5ccf8e64736f6c63430007060033",
    "immutableReferences": {},
    "source": "// SPDX-License-Identifier: GPL-3.0\n\npragma solidity ^0.7.0 ;\npragma abicoder v2;\n\ncontract todo{\n    \n    mapping(address => string[]) public list ;\n    mapping(address => mapping(string => bool)) public content ;\n\n    modifier duplicates(string memory name){\n        require(!content[msg.sender][name], \"Already Exists\") ;\n        _;\n    }\n\n    modifier taskLength(uint length){\n        require(length > 0 && length < 16, \"Min one character max of 15 are alloweds\") ;\n        _;\n    }\n\n    modifier isExists(string memory name){\n        require(content[msg.sender][name],\"Doesn't exists\") ;\n        _;\n    }\n\n    function add(string memory name)public duplicates(name) taskLength(bytes(name).length){\n        list[msg.sender].push(name) ;\n        content[msg.sender][name] = true ;\n    }\n\n    function markascompleted(string memory name) public payable isExists(name){\n         delete content[msg.sender][name] ;\n         bytes32  _name = keccak256(abi.encodePacked(name)) ;\n         bool b = false ;\n         bool pop = false ;\n         bytes32 _indexName ;\n         for(uint i = 0 ; i < list[msg.sender].length ; i++){\n             if(!b){\n                 _indexName = keccak256(abi.encodePacked(list[msg.sender][i])) ;\n             }else{\n                 list[msg.sender][i-1] = list[msg.sender][i] ;\n             }\n             if( _name == _indexName) {\n                 b = true ;\n                 pop = true ;\n             }\n         }\n         list[msg.sender].pop() ;\n    }\n\n    function getTasks() public view returns(string[] memory){\n        return list[msg.sender] ;\n    }\n\n}\n\n// 0x0Ee0AF44a01aeB028616b22e77e96A4B9F600507 -> contract Address deployed on the sepolia testnet",
    "sourcePath": "C:\\Users\\phani\\One-Drive\\BlockChainDeveloper\\Truffle Projects\\To-Do List\\contracts\\To_Do_List.sol",
    "compiler": {
        "name": "solc",
        "version": "0.7.6+commit.7338295f.Emscripten.clang"
    },
    "schemaVersion": "3.4.14",
    "updatedAt": "2023-08-28T07:46:02.356Z",
    "networkType": "ethereum",
    "devdoc": {
        "kind": "dev",
        "methods": {},
        "version": 1
    },
    "userdoc": {
        "kind": "user",
        "methods": {},
        "version": 1
    }
}